:020000040800F2
:10000000C809002015020008031200083111000879
:1000100001120008730300084113000800000000EB
:1000200000000000000000000000000007120008AF
:1000300075030008000000000512000809120008FE
:100040002F0200082F0200082F0200082F020008CC
:100050002F0200082F0200082F0200082F020008BC
:100060002F0200082F0200082F0200082F020008AC
:100070002F0200082F0200082F0200082F0200089C
:100080002F0200082F0200082F0200082F0200088C
:100090002F0200082F0200082F0200082F0200087C
:1000A0002F0200082F0200082F0200082F0200086C
:1000B0002F0200082F0200082F0200082F0200085C
:1000C0002F0200082F0200082F0200082F0200084C
:1000D0002F0200082F0200082F0200082F0200083C
:1000E0002F0200082F0200082F0200082F0200082C
:1000F0002F0200082F0200082F0200082F0200081C
:100100002F0200082F0200082F0200082F0200080B
:100110002F0200082F0200082F0200082F020008FB
:100120002F0200082F0200082F0200082F020008EB
:1001300000F002F800F05EF80AA090E8000C82449B
:100140008344AAF10107DA4501D100F053F8AFF278
:10015000090EBAE80F0013F0010F18BFFB1A43F0A5
:1001600001031847C0160000E016000010F8013B1C
:100170000A4413F0030408BF10F8014B1D1108BF17
:1001800010F8015B641E05D010F8016B641E01F8C5
:10019000016BF9D1002D15D010F8014B03F00C03C1
:1001A0000C2BA1EB04040ABF10F8013BA4EB831451
:1001B000A4EB032405F1010314F8016B5B1E01F8A5
:1001C000016BF9D5914238BF10F8013BD1D370478C
:1001D0000023002400250026103A28BF78C1FBD850
:1001E000520728BF30C148BF0B6070471FB51FBD05
:1001F00010B510BD00F058F81146FFF7F7FF01F0F9
:10020000B1F800F076F803B4FFF7F2FF03BC00F09A
:100210007DF800000948804709480047FEE7FEE7EF
:10022000FEE7FEE7FEE7FEE7FEE7FEE7FEE7FEE7A6
:1002300004480549054A064B70470000871200082C
:1002400031010008C8030020C8090020C8050020AB
:10025000C80500204FF0000200B5134694469646AC
:10026000203922BFA0E80C50A0E80C50B1F12001C9
:10027000BFF4F7AF090728BFA0E80C5048BF0CC077
:100280005DF804EB890028BF40F8042B08BF7047D5
:1002900048BF20F8022B11F0804F18BF00F8012B47
:1002A0007047704770477047754600F02BF8AE46B0
:1002B00005006946534620F00700854618B020B572
:1002C000FFF7B6FFBDE820404FF000064FF00007F3
:1002D0004FF000084FF0000B21F00701AC46ACE8EE
:1002E000C009ACE8C009ACE8C009ACE8C0098D465B
:1002F000704710B50446AFF300802046BDE81040BB
:10030000FFF781BF004870476803002001491820AB
:10031000ABBEFEE7260002007047000070B5044641
:1003200000688168C943C90717D1816821F00101BC
:10033000816000F0FDFA05460AE000BF00F0F8FA1F
:10034000401B022804D920688068C043C00706D03B
:1003500020688068C043C007F0D0002070BDA06A4C
:1003600040F01000A062E06A40F00100E06201206D
:1003700070BDFEE770470000F8B50024009490F8C7
:1003800024202546012A12D0012280F824204A6820
:100390001F23072A0DD20668776B521E02EB8202DA
:1003A00093409F430B6893401F43776319E00220FB
:1003B000F8BD06680D2A0AD2376BD21F02EB820203
:1003C00093409F430B6893401F43376309E0F76AEC
:1003D0000D3A02EB820293409F430B6893401F4308
:1003E000F7620A68072306680A2A0AD3F7680A3AF6
:1003F00002EB420293409F438B6893401F43F76098
:1004000008E0376902EB420293409F438B689340B8
:100410001F4337610A68102A01D0112A20D1124BDC
:1004200002689A4217D193681B0219D4936843F467
:10043000000393600968102912D10C490C4A09681D
:10044000B1FBF2F101EB8101490000E0491E00918E
:100450000029FBD104E0816A41F02001816201247E
:1004600080F824502046F8BD00240140DC02002022
:1004700040420F002DE9F04104004FF000057FD00D
:10048000A06A002628B9E66284F82460204600F0BD
:1004900081F82046FFF742FFA16AC90600D420B1C7
:1004A000A06A40F01000A0626AE0A16A21F48851BD
:1004B00041F00201A162334923688B42E16904D112
:1004C000B1F5402F01D14FF40021277B4FF4807C00
:1004D00041EA470261680A43A168614508D00129E1
:1004E00006D0002194F814E0BEF1010F02D00AE01A
:1004F0006146F7E7C7B1A76A47F02007A762E76A36
:1005000047F00107E7625F6827F469470F435F60C0
:10051000236899681C4F394011439960A16861456F
:100520000BD0012909D00CE0DFF860E0A7690EEBE1
:1005300047370F4347F40061E5E7218A0D05A5F52C
:1005400080152168CB6A23F470032B43CB622168AA
:1005500089680F4B1940914208D1E662A16A21F0E7
:10056000020141F00101A162BDE8F081A06A20F022
:10057000020040F01000A062E06A40F00100E0627A
:100580000120F1E7003C0140FDF7E1FF00E0FFFF43
:10059000FE0E1FFF00B585B0002100910191029170
:1005A000039100680E49884217D10E48816941F4D1
:1005B00000718161816901F400710491816941F0E8
:1005C000100181618069694600F0100004900320E9
:1005D00000900190044800F0A9F805B000BD0000AB
:1005E00000240140001002400010014070B5437922
:1005F000012B1CD0012646710223037105682B686C
:1006000002F0100440F6FE72A2409343D1E90021AB
:100610000A43A2401A432A6001680A68C023A34023
:100620009A430A60067100214171084670BD02209C
:1006300070BD70B5040003D02079002510B105E02D
:10064000012070BD6571204600F008F8022020717D
:10065000256101202071002070BD000000B585B02B
:100660000021009101910291039100680E49884296
:1006700018D10E48C16941F00051C161C16901F052
:1006800000510491816941F00401816180696946EA
:1006900000F00400049030200090032001900448F2
:1006A00000F044F805B000BD0074004000100240A6
:1006B0000008014018B5046800940068104421B196
:1006C000143000900360002018BD0830F9E770B5C1
:1006D0004279012A1ED0012242710223037104686B
:1006E000266801F0100302FA03F52E432660002964
:1006F000016811D00C6804F470153C249C40A5429C
:1007000003D14B6843F002034B6002710021417139
:10071000084670BD022070BD0B68C3F383030F2B26
:10072000F3D14B6843F00103EEE700002DE9F84FE9
:10073000DFF8C891002409F1040A0AF1040B2346EA
:100740000F270BF1040ED1E00125A54006EA0502B2
:10075000AA4276D1DFF8A8C14E68A6EB0C08664520
:100760002BD00DDC032E34D005DC36B3012E19D08E
:10077000022E2FD11BE0112E16D0122E2AD119E0F5
:10078000B8F5881F19D006DCB8F5803F15D0B8F54C
:10079000801F1FD111E0B8F5001F0ED0B8F5041F5F
:1007A00018D10AE0CB6815E0CB681B1D12E0CB68BE
:1007B00008330FE0CB680C330CE08B682BB1012BB6
:1007C0004FF0080303D0456104E0042302E0056113
:1007D00000E00023FF2A01D8064601E000F10406EC
:1007E0004FEA840501D9A5F12005D6F8008007FA63
:1007F00005FC28EA0C0803FA05F548EA0508C6F8DE
:1008000000804D68ED0070D53E4DAE6946F00106A2
:10081000AE61AD6924F0030605F0010500953A4D7F
:1008200006EB050CDCF80850A607360F07FA06F8A9
:1008300025EA0805DFF8D480404503D14FF00008D1
:1008400025E052E0DFF8C880404502D14FF00108B2
:100850001DE0DFF8C080404502D14FF0020816E0ED
:10086000DFF8B480404502D14FF003080FE0DFF815
:10087000AC80404502D14FF0040808E0DFF8A080CA
:10088000404502D14FF0050801E04FF0060808FA94
:1008900006F848EA0508CCF808804D68D9F80060E9
:1008A000ED034D4601D5164300E096432E604D689A
:1008B000DAF80060AD03554601D5164300E09643D3
:1008C0002E604D68DBF80060ED025D4601D51643F1
:1008D00000E096432E604D68DEF80060AD0275467C
:1008E00001D5164300E096432E60641C0A68164644
:1008F000E2407FF429AFBDE8F88F0000000401401A
:1009000000001110001002400000014000080140EA
:10091000000C01400010014000140140001801408B
:10092000001C01400AB1016170470904FBE70000A7
:100930000148806870470000D002002002488168AA
:100940000278114481607047D0020020074810B53A
:10095000016841F010010160032000F067F80F20EA
:1009600000F006F800F024F8002010BD002002403E
:1009700070B50D4D04464FF47A712878B1FBF0F054
:100980000A490968B1FBF0F000F054FB48B9102C9B
:1009900007D200222146501E00F028F800206C608B
:1009A00070BD012070BD0000D0020020DC020020DC
:1009B0000C4808B5816941F001018161816901F04C
:1009C00001010091C16941F08051C161C06900F02D
:1009D000805000900448416821F0E06141F00071CE
:1009E000416008BD0010024000000140F0B40E4B11
:1009F0001B680C46C3F30223C3F10705042D00D97D
:100A00000425191D072901D2002300E0DB1E012661
:100A100006FA05F1491E214099409E40761E164077
:100A20003143F0BC00F08DBC0CED00E0064900F055
:100A3000070208684FF6FF03184040EA0220034A05
:100A400010430860704700000CED00E00000FA055C
:100A50002DE9F84305460078354CC00754D0E069CD
:100A60000026C00008D4E06940F08050E061E069F1
:100A7000012600F0805000902E480168C90512D46C
:100A80000168804641F480710160FFF751FF07461D
:100A900005E000BFFFF74CFFC01B642823D8D8F83F
:100AA0000000C005F6D5206A10F4407021D0A98856
:100AB00001F4407181421CD0206A1F49012220F4B8
:100AC00040700A6000220A602062C00711D0FFF760
:100AD0002FFF074641F2883808E000BFFFF728FFE4
:100AE000C11B414502D90320BDE8F883206A800775
:100AF000F4D5206A696820F44070084320621EB172
:100B0000E06920F08050E0612878800705D56068B2
:100B1000A96820F44040084360602878C00605D5E5
:100B20006068696920F48000084360600020DBE7AA
:100B30000010024000700040400442422DE9F0479E
:100B40000F46050061D0434E306800F00700B84200
:100B500009D2306820F0070038433060306800F078
:100B60000700B84251D128683B4C810712D5400795
:100B700003D5606840F4E06060602878000703D522
:100B8000606840F4605060606068A96820F0F00020
:100B9000084360602878C00728D06868012810D012
:100BA0002168022810D0890700292EDA616821F017
:100BB000030101436160FFF7BBFE804641F28839C3
:100BC0000DE021688903EFE78901EDE7FFF7B0FE4B
:100BD000A0EB0801494502D90320BDE8F087606811
:100BE000696800F00C00B0EB810FEFD1306800F0C5
:100BF0000700B8420BD9306820F007003843306056
:100C0000306800F00700B84201D00120E5E72878FD
:100C1000400705D56068E96820F4E060084360603B
:100C20002878000706D56068296920F4605040EAFA
:100C3000C100606000F038F86168084AC1F3031130
:100C4000515CC8400649086006480068FFF790FEFE
:100C50000020C2E700200240001002400A180008ED
:100C6000DC020020D40200200448054900684968DD
:100C7000044AC1F30221515CC8407047DC020020E5
:100C8000001002401A180008044805490068496825
:100C9000044AC1F3C221515CC8407047DC02002005
:100CA000001002401A18000812A185B00FC98DE883
:100CB0000F0014A0144A006804905168134801F012
:100CC0000C03042B10D0082B0ED1C1F38343C903AE
:100CD0001DF803000AD5516804AAC1F34041515CD4
:100CE0000A4A5043B0FBF1F005B070470849484349
:100CF000FAE7000002030405060708090A0B0C0DB9
:100D00000E0F1010010200000010024000127A00C5
:100D100000093D002DE9F84F040070D02078C04D47
:100D2000C00749D06868C0F38100012807D068680F
:100D3000C0F38100022809D16868C00306D528687D
:100D4000800339D560680028E7D035E06068B0F5E9
:100D5000803F0BD010B1B0F5A02F11D0286820F43F
:100D600080302860286820F4802002E0286840F461
:100D700080302860606890B1FFF7DAFD06460AE02F
:100D8000286840F480202860F0E700BFFFF7D0FD1E
:100D9000801B642873D828688003F7D50CE0FFF720
:100DA000C7FD064605E000BFFFF7C2FD801B6428B3
:100DB000F0D828688003F7D420789A4E80074FF047
:100DC00001094FF0000839D5686810F00C0F07D002
:100DD0006868C0F38100022809D16868C00306D49E
:100DE0002868800714D52069012808D110E02069FF
:100DF000B0B1C6F80090FFF79BFD074605E00AE199
:100E0000FFF796FDC01B0228C4D828688007F7D5D5
:100E10002868616920F0F80040EAC10028600DE010
:100E2000C6F80080FFF784FD074604E0FFF780FD69
:100E3000C01B022823D828688007F7D42078000731
:100E40002CD57948A169D9B1C0F80090FFF770FDA1
:100E5000074604E0FFF76CFDC01B02280FD8686A44
:100E60008007F7D571484FF4FA510068B0FBF1F0F4
:100E7000009000BF0098411E0091FAD20EE080E081
:100E8000C0F80080FFF754FD074604E0FFF750FD6F
:100E9000C01B022875D8686A8007F7D420784007FD
:100EA00060D5E8690027C00008D4E86940F08050A8
:100EB000E861E869012700F0805000905C48016813
:100EC000C90513D40168834641F480710160FFF7BE
:100ED0002FFD824606E000BFFFF72AFDA0EB0A00C7
:100EE00064284ED8DBF80000C005F5D5E06801287D
:100EF0000AD008B1052813D0286A20F00100286222
:100F0000286A20F0040002E0286A40F0010028620C
:100F1000E06841F2883B98B1FFF70AFD82460BE09A
:100F2000286A40F004002862EEE700BFFFF700FDEA
:100F3000A0EB0A0159455AD8286A8007F6D50CE07B
:100F4000FFF7F6FC824605E0FFF7F2FCA0EB0A0192
:100F500059454CD8286A8007F6D41FB1E86920F0BB
:100F60008050E861E06988B36968C1F381010229B2
:100F700044D00228C6F8608004D0FFF7D9FC0446AC
:100F800038E034E0FFF7D4FC074604E0FFF7D0FC7C
:100F9000C01B02282BD828688001F7D4206AB0F53E
:100FA000803F05D16868A16820F40030084368607C
:100FB000D4E908010843696821F4741108436860A2
:100FC000C6F86090FFF7B4FC044606E025E000BFD9
:100FD000FFF7AEFC001B022809D828688001F7D56E
:100FE0001BE000BFFFF7A4FC001B022802D903206E
:100FF000BDE8F88F28688001F4D40EE00128F7D00E
:101000006868226A00F48031914204D1616A00F478
:101010007010884201D00120EAE70020E8E70000D4
:10102000001002400000424280044242DC020020E4
:101030000070004010B5401EB0F1807F01D3012048
:1010400010BD4FF0E02460610F21601700F079F9C6
:101050000020A06107202061002010BD70B50400B1
:1010600004D094F83D00002510B106E0012070BDC9
:1010700084F83C50204600F023F8242084F83D00FA
:101080002068C16821F40051C160204600F0FCF8DE
:101090002068016921F4904101612068416921F0D3
:1010A0002A0141612068C16841F40051C160256492
:1010B000202084F83D0084F83E00002070BD000030
:1010C00030B585B000240094019402940394006824
:1010D0001449884223D11448C16941F40031C161E7
:1010E000C16901F400310491816941F00401816119
:1010F00080690E4D00F0040004900420009002204E
:1011000001900320039069462846FFF70FFB082053
:10111000CDE90004694628460294FFF707FB05B0B5
:1011200030BD0000004400400010024000080140B3
:10113000FEE700003EB5002411480094019402949B
:101140000E498460016004730475012505614FF444
:1011500060214460C161FFF78DF908B172B6FEE706
:101160000A20CDE90005694602940548FFF704F915
:10117000002801D072B6FEE73EBD00000024014009
:10118000E002002030B585B000241B480094019493
:1011900002940394816941F020018161816901F029
:1011A00020010491816941F010018161816901F0A0
:1011B00010010491816941F004018161816901F0AC
:1011C00004010491816941F00801816180690B4D3E
:1011D00000F008000490012203212846FFF7A2FB3B
:1011E00003210120CDE90010CDE9024169462846DE
:1011F000FFF79CFA05B030BD00100240000C014022
:10120000FEE7FEE770477047FFF798BB30B595B033
:1012100028216846FFF71EF814210AA8FFF71AF8DC
:1012200018210FA8FFF716F801210804CDE90010D6
:101230000025029502240491CDE907404FF4E01007
:1012400009906846FFF766FD08B172B6FEE70AA985
:101250000F2081E831004FF48060CDE90D050221B7
:101260000AA8FFF76BFC08B172B6FEE74FF4004026
:1012700011900F940FA8FFF7EBFB002801D072B676
:10128000FEE715B030BD704770B5044600680169CF
:10129000E26821F44051114301612169A0680843CB
:1012A000616908432168CA6841F20C639A430243AA
:1012B000CA6020684169A26921F44071114341610B
:1012C0001E492068884202D1FFF7DEFC01E0FFF7EB
:1012D000CBFC00EBC00101EB0012606864218000D0
:1012E000B2FBF0F3B3FBF1F36FF018067343B2FBFC
:1012F000F0F5B2FBF0F605EB8305322303EB0515A1
:10130000B5FBF1F5B6FBF1F605F0F00505EB0615BA
:10131000B2FBF0F6B2FBF0F0B0FBF1F06FF01802A8
:10132000504306EB800003EB0010B0FBF1F02168A6
:1013300000F00F002844886070BD000000380140B4
:10134000FEE70907090E002804DB00F1E02080F821
:101350000014704700F00F0000F1E02080F8141D29
:10136000704700001CB5FFF7F1FAFFF74FFFFFF7DA
:1013700009FFFFF7DFFE0024384900943648019446
:1013800008600846FFF755F908B172B6FEE7009409
:101390000022694631480194FFF728F908B172B676
:1013A000FEE7102269462D48FFF720F908B172B612
:1013B000FEE72A482A49143001604FF4E131C0E9C0
:1013C00001140C21C460C0E904418461C461FFF7C9
:1013D00045FE08B172B6FEE700231A4619461F48BB
:1013E000FFF768F900231A4610211C48FFF762F93D
:1013F00000211A48FFF76BF910211848FFF767F929
:10140000184D194E194F0024314655F8240000F0AC
:10141000B1F8394600F02CF800F08CF803460022B1
:1014200011460E48FFF746F9641CB42CECD3002497
:10143000314655F8240000F09DF8394600F066F971
:1014400000F078F80346002211460448FFF732F90D
:10145000641CB42CECD3D6E70074004010030020C9
:1014600000440040000000200000FA440020004535
:1014700090EA010F48BF81F0004100F15881421A03
:101480003CBF801A89184FEAD0524FF07F4C1CEABB
:10149000410FA2EBD15318BF9CEA026F00F03B80D2
:1014A0004FF0004C4CEA00204CEA012121FA03FCE9
:1014B00010EB0C0C1ED202F1FF325FEA1C2040EB55
:1014C000C25038BF70471CF07F0F4FEA400C18BF66
:1014D000BCF17F4F38BF7047C3F12003994008BF6C
:1014E00020F00100BCF17F4F38BF7047A0F1C04031
:1014F00000F007B94FEA3C00000A40EBC25028BF99
:101500001CF0FF0F4FEA400CE6D018BFBCF17F4F34
:1015100038BF7047EAE79CEA026F05D010EA5C0F1B
:1015200008BF00F00040704710B500F0A4F800BFFD
:1015300064FBBE3EC10DD1F19E0206DB4FEA0023E3
:1015400043F0004323FA02F07047004207D54FEA08
:101550004001B1F1FE4F02D24FF00000704710B5CC
:1015600000F089F849922480002070476FEA20003B
:10157000704700004FF47F0C1CEAD0121EBF1CEA1B
:10158000D11392EA0C0F93EA0C0F00F0478090EA17
:10159000010F48BF42F480724FF0004C4CEA00202B
:1015A0004CEA012102EB0302A0FB0113A2F50002A9
:1015B000002918BF43F001035B0028BF4FEA330343
:1015C00042EB22425FEA132C4CEBC2502EBFBCEB25
:1015D000436FB2F57C0F70474FEA036CBCF1004FCC
:1015E00008BF20F00100B2F57C0F38BF70470BD563
:1015F00082F0FF0212F5803FC8BF704700F1C04083
:10160000D8BF00F00040704700F5000C5FEA4C0CBA
:1016100048BF7047B0F1C04000F073B890EA010FC6
:101620000CEAD11348BF42F48072624538BF63456B
:1016300004D280EA010000F00040704710B500F0CD
:101640001AF800BF8900013E00F007B800F009B8A1
:101650005FEA410C5FEA1C6C08D080EA010000F0F0
:1016600050B85FEA400C5FEA1C6CF6D14FF00040C6
:10167000A0F5800070470EF1020E2EF0030E5EF80A
:10168000044B244204D44FEA4102B2F17F4F11D8F7
:101690004FEA4003B3F17F4F0CD80ED14FEAD07C14
:1016A000B2F17F4F0CEB4C0C0CF1020C08BF4CEB71
:1016B000D17C04E04FF0080C01E04FEAD17C0CEB48
:1016C0004C0324FA03F404F00704B4F1040C06D22A
:1016D0000EEB840CBDE810404CF0010C6047DFE8D5
:1016E0000CF0070802024FF00040A0F5800010BD8A
:1016F0000846420018BFD2F1807288BF00F0004057
:1017000010BDFF2141EAD050C005704780F0004075
:1017100090EA010F7FF5B3AE81F0004100F007B809
:1017200090EA010F48BF81F000413FF5A8AE421A90
:1017300004D882F00042A0EB020011444FEAD052DC
:101740004FF07F4C1CEA410FA2EBD15318BF9CEA2B
:10175000026F4AD04FF0004C4CEA00204CEA0121C5
:1017600021FA03FCB0EB0C0C0FD412F0FE0F36D0B4
:101770005FEA4C001DD5001240EBC25038BF7047E5
:101780001CF03F0F18BF70470BE0A2F101025FEAA7
:101790001C2040EBC25038BF70471CF07F0F18BFB1
:1017A0007047C3F12003994014BF401E20F0010090
:1017B000704780084FEA122308BF7047B0FA80FCD8
:1017C000A2EB0C02CCF1280C60FA0CF093EA122F79
:1017D00004BF00EBC25070474FEAC3707047130A52
:1017E0005FEADC1008BF7047F6E79CEA026F04D09E
:1017F00010EA5C0F08BF0020704710B5FFF73BFFF1
:1018000040DFF63E81F0004070470000000000001D
:10181000000001020304060708090000000001029D
:10182000030400004418000800000020E00200004B
:101830006C010008901A0008E0020020E806000091
:10184000D0010008102D96438B3C295C0F3DF4FD20
:10185000543D295C8F3D0E2DB23D3D0AD73D23DB23
:10186000F93D04560E3E77BE1F3E0E2D323E819549
:10187000433E2410453E6666663ED9CE773EA69B23
:10188000843EDF4F8D3E0681953E3F359E3E79E991
:10189000A63EA01AAF3EC74BB73E0000C03E273160
:1018A000C83E4E62D03E7593D83E8941E03EB0724C
:1018B000E83EC520F03EEC51F820105E003F0AD70C
:1018C000033F14AE073F1F850B3FA01A0F3F21B007
:1018D000123F2B87163FAC1C1A3F2DB21D3F250629
:1018E000213FA69B243F9EEF273F96432B3F8D979A
:1018F0002E3F85EB313FF4FD343F6210383FD1225B
:101900003B3F3F353E3FAE47413F9318443F79E967
:10191000463F5EBA493F448B4C5010164F3FFCA9DE
:10192000513F5839543FB4C8563F8716593F5A64FF
:101930005B58100A5D3F0000603F4A0C623410069D
:10194000643FDD246660126738126988100E6B3FB1
:10195000DF4F6D3F17D96E3FD7A3706C101E713FDC
:10196000BC74733F6ABC743F1904763FC74B773F22
:10197000EC51783F1058793F355E7A50100E7B3F1E
:10198000F6287C3F91ED7C3FA4707D8C40117E3F1A
:10199000C9767E3FDBF97E3FEE7C7F3F77BE0470E9
:1019A0000400008004611421202128300452B87EF4
:1019B000382140214821502158216021682170217F
:1019C0007821802188219030040E2D72A03004A04F
:1019D0001A6FB03008A8C66B3FE7FB69C821D02159
:1019E000D821E021E821F021F8250025082510253F
:1019F0001825202528253025382540254825501034
:101A0000045A643BE8363868257025782580258897
:101A100025903404AE4721A025A825B01805AAF1C9
:101A2000123F4035C825D025D825E025E83404D715
:101A3000A3F0F838049CC4E008291029182920389C
:101A400008D9CEB73EB29DAF38380852B89E3E197D
:101A5000049650295829602968297029782980100E
:101A6000059CC4203E682A3E9829A038045839B401
:101A7000B015DC19B818070F3DBC74933C581B0017
:101A8000015D5310000100040024F4000000000078
:0400000508000131BD
:00000001FF
