:020000040800F2
:10000000580A002015020008271B0008951900084F
:10001000251B0008F10300088D1E000800000000E9
:100020000000000000000000000000002B1B000882
:10003000F303000800000000291B00082D1B000826
:100040002F0200082F0200082F0200082F020008CC
:100050002F0200082F0200082F0200082F020008BC
:100060002F0200082F0200082F0200082F020008AC
:100070002F0200082F0200082F0200082F0200089C
:100080002F0200082F0200082F0200082F0200088C
:100090002F0200082F0200082F0200082F0200087C
:1000A0002F020008AD1B00082F0200082F020008D5
:1000B0002F0200082F0200082F0200082F0200085C
:1000C0002F0200082F0200082F0200082F0200084C
:1000D0002F0200082F0200082F0200082F0200083C
:1000E0002F0200082F0200082F0200082F0200082C
:1000F0002F0200082F0200082F0200082F0200081C
:100100002F0200082F0200082F0200082F0200080B
:100110002F0200082F0200082F0200082F020008FB
:100120002F0200082F0200082F0200082F020008EB
:1001300000F002F800F05EF80AA090E8000C82449B
:100140008344AAF10107DA4501D100F053F8AFF278
:10015000090EBAE80F0013F0010F18BFFB1A43F0A5
:1001600001031847A0280000C028000010F8013B38
:100170000A4413F0030408BF10F8014B1D1108BF17
:1001800010F8015B641E05D010F8016B641E01F8C5
:10019000016BF9D1002D15D010F8014B03F00C03C1
:1001A0000C2BA1EB04040ABF10F8013BA4EB831451
:1001B000A4EB032405F1010314F8016B5B1E01F8A5
:1001C000016BF9D5914238BF10F8013BD1D370478C
:1001D0000023002400250026103A28BF78C1FBD850
:1001E000520728BF30C148BF0B6070471FB51FBD05
:1001F00010B510BD00F058F81146FFF7F7FF01F0F9
:1002000057FE00F076F803B4FFF7F2FF03BC00F0EE
:100210007DF800000948804709480047FEE7FEE7EF
:10022000FEE7FEE7FEE7FEE7FEE7FEE7FEE7FEE7A6
:1002300004480549054A064B70470000AB1B0008FF
:100240003101000858040020580A002058060020F8
:10025000580600204FF0000200B51346944696461B
:10026000203922BFA0E80C50A0E80C50B1F12001C9
:10027000BFF4F7AF090728BFA0E80C5048BF0CC077
:100280005DF804EB890028BF40F8042B08BF7047D5
:1002900048BF20F8022B11F0804F18BF00F8012B47
:1002A0007047704770477047754600F02BF8AE46B0
:1002B00005006946534620F00700854618B020B572
:1002C000FFF7B6FFBDE820404FF000064FF00007F3
:1002D0004FF000084FF0000B21F00701AC46ACE8EE
:1002E000C009ACE8C009ACE8C009ACE8C0098D465B
:1002F000704710B50446AFF300802046BDE81040BB
:10030000FFF781BF00487047F8030020014918201B
:10031000ABBEFEE7260002007047000070B5044641
:1003200000688168C943C90717D1816821F00101BC
:10033000816000F0D3FC05460AE000BF00F0CEFC6F
:10034000401B022804D920688068C043C00706D03B
:1003500020688068C043C007F0D0002070BDA06A4C
:1003600040F01000A062E06A40F00100E06201206D
:1003700070BD0000F8B5002604460096006881684C
:10038000C943C9072DD0816841F001018160164839
:1003900016490068B0FBF1F000E0401E0090002814
:1003A000FBD100F09BFC054616E000BF00F096FC78
:1003B000401B022810D920688068C043C0070BD0BA
:1003C000A06A40F01000A062E06A40F00100E06224
:1003D00084F824600120F8BD20688068C043C0070D
:1003E000E4D10020F8BD0000F402002040420F00DC
:1003F000FEE77047F8B500250446009590F8240004
:10040000012808D0012084F824002046FFF786FF49
:10041000060002D053E00220F8BDA06A20F4885004
:1004200040F00200A062022000F0F6FC26490968B4
:10043000B1FBF0F0400000E0401E00900028FBD12E
:100440002046FFF797FF2068816841F0080181602E
:1004500000F044FC074608E000F040FCC01B0A28FE
:1004600003D920688068000715D4206880680007D9
:10047000F2D42068816841F00401816000F02EFC14
:10048000074612E000F02AFCC01B0A280DD920689C
:100490008068400709D5A06A20F0020040F01000F3
:1004A000A06284F824500120F8BD206880684007CD
:1004B000E8D4A06A20F0020040F00100A06284F8B5
:1004C00024503046F8BD0000F4020020F8B50024A6
:1004D000009490F824202546012A12D0012280F8A9
:1004E00024204A681F23072A0DD20668776B521E04
:1004F00002EB820293409F430B6893401F43776354
:1005000019E00220F8BD06680D2A0AD2376BD21F07
:1005100002EB820293409F430B6893401F43376373
:1005200009E0F76A0D3A02EB820293409F430B68A1
:1005300093401F43F7620A68072306680A2A0AD312
:10054000F7680A3A02EB420293409F438B6893405C
:100550001F43F76008E0376902EB420293409F4374
:100560008B6893401F4337610A68102A01D0112A13
:1005700020D1124B02689A4217D193681B0219D4FA
:10058000936843F4000393600968102912D10C4961
:100590000C4A0968B1FBF2F101EB8101490000E06E
:1005A000491E00910029FBD104E0816A41F020013D
:1005B0008162012480F824502046F8BD00240140C7
:1005C000F402002040420F000068C06C7047000039
:1005D0002DE9F04104004FF000057FD0A06A00260D
:1005E00028B9E66284F82460204600F081F82046AD
:1005F000FFF794FEA16AC90600D420B1A06A40F0BA
:100600001000A0626AE0A16A21F4885141F0020161
:10061000A162334923688B42E16904D1B1F5402FCF
:1006200001D14FF40021277B4FF4807C41EA47023F
:1006300061680A43A168614508D0012906D00021FC
:1006400094F814E0BEF1010F02D00AE06146F7E72A
:10065000C7B1A76A47F02007A762E76A47F001071A
:10066000E7625F6827F469470F435F602368996812
:100670001C4F394011439960A16861450BD0012995
:1006800009D00CE0DFF860E0A7690EEB47370F43B5
:1006900047F40061E5E7218A0D05A5F5801521687D
:1006A000CB6A23F470032B43CB62216889680F4B1C
:1006B0001940914208D1E662A16A21F0020141F09D
:1006C0000101A162BDE8F081A06A20F0020040F0C3
:1006D0001000A062E06A40F00100E0620120F1E752
:1006E000003C0140FDF7E1FF00E0FFFFFE0E1FFFB1
:1006F00010B586B0002100910191029103911A4C2E
:1007000003681A4903221A48A34211D18B6943F4A2
:1007100000738B618B6903F4007304938B6943F05E
:1007200010038B61896901F010010491012113E02C
:10073000104CA34215D18B6943F480638B618B69A4
:1007400003F4806304938B6943F010038B61896920
:1007500001F0100104910221CDE90012694600F078
:10076000BBF906B010BD000000240140001002409B
:1007700000100140002801402DE9F84300270D46F4
:100780000446009700F0AAFA804620688168C905EF
:1007900008D5A06A40F02000A06284F824700120EF
:1007A000BDE8F8834168C90503D4C06A10F4700F2E
:1007B0002AD0022000F030FB3B490968B1FBF0F67B
:1007C0002068036939490B424FEA61014FEAA112DF
:1007D0001FD1C3684FEA611C13EA0C0F19D10369DA
:1007E0000B4225D1C068104222D1142023E0681C9E
:1007F0000AD02DB100F072FAA0EB0800A84203D98C
:1008000020680068800725D5206800688007EED53D
:100810002DE003690B4202D1C168114206D0026982
:1008200023490A4206D1C068084203D1542002E09D
:10083000292000E0FC204643009816E0681C11D0F7
:100840002DB100F04BFAA0EB0800A8420AD900989D
:10085000B04207D2A06A40F00400A06284F824707D
:1008600003209DE70098401C0090B042E6D3216829
:100870006FF012000860A06A40F40070A062206867
:100880008068C0F3424007280CD1207B50B9A06A91
:1008900020F48070A062A06AC00403D4A06A40F073
:1008A0000100A06200207BE7F4020020244992248A
:1008B0004992240070B5044690F8240001280DD018
:1008C000012084F824002046FFF754FD02004FF079
:1008D000000005D084F82400104670BD022070BDD1
:1008E000A16A40F20123994341F48071A1621F4D36
:1008F00023681F49AB4218D10E6816F4702F14D02C
:10090000A66A46F48016A6620E68760505D5A66A24
:1009100026F4005646F48056A662A66AF6040AD566
:10092000E66A26F00606E66206E0A66A26F4801667
:10093000A6625E68E9E7E06284F824006FF00200D6
:10094000186020688368C3F34243072B05D1A8428F
:1009500008D1096811F4702F04D0816841F4801126
:100960008160B9E7816841F4A001F9E700280140FE
:100970000424014070B54379012B1CD00126467137
:100980000223037105682B6802F0100440F6FE7222
:10099000A2409343D1E900210A43A2401A432A60AE
:1009A00001680A68C023A3409A430A6006710021C7
:1009B0004171084670BD022070BD70B5040003D0BF
:1009C0002079002510B105E0012070BD6571204639
:1009D00000F008F80220207125610120207100201C
:1009E00070BD000000B585B0002100910191029119
:1009F000039100680E49884218D10E48C16941F040
:100A00000051C161C16901F000510491816941F057
:100A1000040181618069694600F00400049030207F
:100A2000009003200190044800F056F805B000BD86
:100A300000740040001002400008014018B504682E
:100A400000940068104421B114300090036000202D
:100A500018BD0830F9E770B54279012A1ED001228D
:100A60004271022303710468266801F0100302FA40
:100A700003F52E4326600029016811D00C6804F4A8
:100A800070153C249C40A54203D14B6843F00203FF
:100A90004B60027100214171084670BD022070BD9B
:100AA0000B68C3F383030F2BF3D14B6843F00103AF
:100AB000EEE7000070B5044600F010F90546601C32
:100AC00002D004480078044400F008F9401BA0421A
:100AD000FAD370BDE80200202DE9F84FDFF8C89185
:100AE000002409F1040A0AF1040B23460F270BF135
:100AF000040ED1E00125A54006EA0502AA4276D1FE
:100B0000DFF8A8C14E68A6EB0C0866452BD00DDCBB
:100B1000032E34D005DC36B3012E19D0022E2FD18E
:100B20001BE0112E16D0122E2AD119E0B8F5881F1D
:100B300019D006DCB8F5803F15D0B8F5801F1FD15D
:100B400011E0B8F5001F0ED0B8F5041F18D10AE067
:100B5000CB6815E0CB681B1D12E0CB6808330FE0B3
:100B6000CB680C330CE08B682BB1012B4FF00803E2
:100B700003D0456104E0042302E0056100E00023A6
:100B8000FF2A01D8064601E000F104064FEA840579
:100B900001D9A5F12005D6F8008007FA05FC28EA5E
:100BA0000C0803FA05F548EA0508C6F800804D6808
:100BB000ED0070D53E4DAE6946F00106AE61AD69FF
:100BC00024F0030605F0010500953A4D06EB050CEF
:100BD000DCF80850A607360F07FA06F825EA0805DC
:100BE000DFF8D480404503D14FF0000825E052E003
:100BF000DFF8C880404502D14FF001081DE0DFF862
:100C0000C080404502D14FF0020816E0DFF8B48002
:100C1000404502D14FF003080FE0DFF8AC804045BB
:100C200002D14FF0040808E0DFF8A080404502D16F
:100C30004FF0050801E04FF0060808FA06F848EA08
:100C40000508CCF808804D68D9F80060ED034D46E2
:100C500001D5164300E096432E604D68DAF8006037
:100C6000AD03554601D5164300E096432E604D680E
:100C7000DBF80060ED025D4601D5164300E09643C7
:100C80002E604D68DEF80060AD02754601D5164352
:100C900000E096432E60641C0A681646E2407FF42A
:100CA00029AFBDE8F88F00000004014000001110DA
:100CB000001002400000014000080140000C01400B
:100CC000001001400014014000180140001C0140C8
:100CD0000AB1016170470904FBE700000148806820
:100CE00070470000E8020020024881680278114441
:100CF00081607047E8020020074810B5016841F0A4
:100D000010010160032000F075F80F2000F006F8D4
:100D100000F024F8002010BD0020024070B50D4DF9
:100D200004464FF47A712878B1FBF0F00A4909685B
:100D3000B1FBF0F000F0CCFB48B9102C07D2002238
:100D40002146501E00F036F800206C6070BD012076
:100D500070BD0000E8020020F40200200C4808B535
:100D6000816941F001018161816901F00101009116
:100D7000C16941F08051C161C06900F080500090AC
:100D80000448416821F0E06141F00071416008BD14
:100D90000010024000000140002809DB00F01F02A3
:100DA000012191404009800000F1E020C0F80011CD
:100DB00070470000F0B40E4B1B680C46C3F30223CF
:100DC000C3F10705042D00D90425191D072901D2F7
:100DD000002300E0DB1E012606FA05F1491E214032
:100DE00099409E40761E16403143F0BC01F04FB84A
:100DF0000CED00E0064900F0070208684FF6FF031B
:100E0000184040EA0220034A10430860704700007F
:100E10000CED00E00000FA0510B52CA401461DCC35
:100E200086B08DE81D002DA02D4C00680490002098
:100E300004292FD00BDC01292FD0022928D100F062
:100E400071F96168C1F38131491C49001EE008292C
:100E500020D010291CD161682268D20118D5C1F3B5
:100E60008342C9031DF8020009D5616804AAC1F3D1
:100E70004041515C1B4AB2FBF1F1484301E01A4981
:100E800048436168490203D440000321B0FBF1F0FC
:100E900006B010BD00F056F9FAE7226AC2F301214C
:100EA000012903D1920701D5C803F1E7022905D131
:100EB000626A920702D549F64040E9E70329E7D183
:100EC00021688903E4D54FF22440E1E702030405D9
:100ED000060708090A0B0C0D0E0F10100102000086
:100EE0000010024000127A0000093D002DE9F8438D
:100EF00005460078354CC00754D0E0690026C00094
:100F000008D4E06940F08050E061E069012600F01B
:100F1000805000902E480168C90512D401688046AF
:100F200041F480710160FFF7D9FE074605E000BF7C
:100F3000FFF7D4FEC01B642823D8D8F80000C005F2
:100F4000F6D5206A10F4407021D0A98801F44071D0
:100F500081421CD0206A1F49012220F440700A609F
:100F600000220A602062C00711D0FFF7B7FE0746D3
:100F700041F2883808E000BFFFF7B0FEC11B4145D1
:100F800002D90320BDE8F883206A8007F4D5206ADF
:100F9000696820F44070084320621EB1E06920F0C7
:100FA0008050E0612878800705D56068A96820F442
:100FB0004040084360602878C00605D560686969CC
:100FC00020F48000084360600020DBE7001002404E
:100FD00000700040400442422DE9F0470F460500F2
:100FE00061D0434E306800F00700B84209D2306843
:100FF00020F0070038433060306800F00700B84246
:1010000051D128683B4C810712D5400703D5606851
:1010100040F4E06060602878000703D5606840F421
:10102000605060606068A96820F0F000084360606C
:101030002878C00728D06868012810D021680228C5
:1010400010D0890700292EDA616821F003010143DD
:101050006160FFF743FE804641F288390DE0216868
:101060008903EFE78901EDE7FFF738FEA0EB080100
:10107000494502D90320BDE8F0876068696800F03F
:101080000C00B0EB810FEFD1306800F00700B842E0
:101090000BD9306820F0070038433060306800F02A
:1010A0000700B84201D00120E5E72878400705D5C0
:1010B0006068E96820F4E060084360602878000711
:1010C00006D56068296920F4605040EAC10060607C
:1010D00000F038F86168084AC1F30311515CC84058
:1010E0000649086006480068FFF718FE0020C2E7BE
:1010F0000020024000100240EA290008F40200200B
:10110000EC0200200448054900684968044AC1F31C
:101110000221515CC8407047F402002000100240D8
:10112000FA2900080448054900684968044AC1F3DF
:10113000C221515CC8407047F402002000100240F8
:10114000FA29000812A185B00FC98DE80F0014A07C
:10115000144A006804905168134801F00C03042BF2
:1011600010D0082B0ED1C1F38343C9031DF803002F
:101170000AD5516804AAC1F34041515C0A4A504360
:10118000B0FBF1F005B0704708494843FAE70000AA
:1011900002030405060708090A0B0C0D0E0F1010B8
:1011A000010200000010024000127A0000093D0018
:1011B0002DE9F84F040070D02078C04DC00749D009
:1011C0006868C0F38100012807D06868C0F3810017
:1011D000022809D16868C00306D52868800339D57C
:1011E00060680028E7D035E06068B0F5803F0BD03C
:1011F00010B1B0F5A02F11D0286820F480302860FD
:10120000286820F4802002E0286840F480302860BC
:10121000606890B1FFF762FD06460AE0286840F476
:1012200080202860F0E700BFFFF758FD801B64288E
:1012300073D828688003F7D50CE0FFF74FFD06460A
:1012400005E000BFFFF74AFD801B6428F0D828683E
:101250008003F7D420789A4E80074FF001094FF0B1
:10126000000839D5686810F00C0F07D06868C0F323
:101270008100022809D16868C00306D42868800765
:1012800014D52069012808D110E02069B0B1C6F852
:101290000090FFF723FD074605E00AE1FFF71EFD7A
:1012A000C01B0228C4D828688007F7D52868616960
:1012B00020F0F80040EAC10028600DE0C6F8008088
:1012C000FFF70CFD074604E0FFF708FDC01B0228EE
:1012D00023D828688007F7D4207800072CD57948D0
:1012E000A169D9B1C0F80090FFF7F8FC074604E007
:1012F000FFF7F4FCC01B02280FD8686A8007F7D5F7
:1013000071484FF4FA510068B0FBF1F0009000BF53
:101310000098411E0091FAD20EE080E0C0F80080F3
:10132000FFF7DCFC074604E0FFF7D8FCC01B0228EF
:1013300075D8686A8007F7D42078400760D5E869D7
:101340000027C00008D4E86940F08050E861E869EF
:10135000012700F0805000905C480168C90513D453
:101360000168834641F480710160FFF7B7FC824653
:1013700006E000BFFFF7B2FCA0EB0A0064284ED8DD
:10138000DBF80000C005F5D5E06801280AD008B1F7
:10139000052813D0286A20F001002862286A20F06E
:1013A000040002E0286A40F001002862E06841F28F
:1013B000883B98B1FFF792FC82460BE0286A40F028
:1013C00004002862EEE700BFFFF788FCA0EB0A01EB
:1013D00059455AD8286A8007F6D50CE0FFF77EFCFD
:1013E000824605E0FFF77AFCA0EB0A0159454CD88C
:1013F000286A8007F6D41FB1E86920F08050E861C0
:10140000E06988B36968C1F38101022944D00228E8
:10141000C6F8608004D0FFF761FC044638E034E091
:10142000FFF75CFC074604E0FFF758FCC01B0228EE
:101430002BD828688001F7D4206AB0F5803F05D109
:101440006868A16820F4003008436860D4E90801A6
:101450000843696821F4741108436860C6F8609015
:10146000FFF73CFC044606E025E000BFFFF736FC32
:10147000001B022809D828688001F7D51BE000BFAF
:10148000FFF72CFC001B022802D90320BDE8F88FCF
:1014900028688001F4D40EE00128F7D06868226A39
:1014A00000F48031914204D1616A00F470108842E6
:1014B00001D00120EAE70020E8E700000010024028
:1014C0000000424280044242F402002000700040CA
:1014D00010B5401EB0F1807F01D3012010BD4FF048
:1014E000E02460610F21601700F0D1FC0020A061B2
:1014F00007202061002010BD7047704770B590F83C
:101500003C20012A2CD0012480F83C40022280F8A3
:101510003D2003685A689D6822F070060A683243CD
:101520005A60104B02689A420ED00F4B9A420BD071
:10153000B2F1804F08D00D4B9A4205D00C4B9A4225
:1015400002D00C4B9A4204D1496825F0800319431C
:10155000916080F83D40002180F83C10084670BD45
:10156000022070BD002C0140003401400004004006
:1015700000080040000C004010B5040003D094F8AF
:101580003D0010B107E0012010BD002084F83C00B0
:10159000204600F01FF8022084F83D00211D20683D
:1015A00000F09CFB012084F8460084F83E0084F89B
:1015B0003F0084F8400084F8410084F8420084F839
:1015C000430084F8440084F8450084F83D0000207E
:1015D00010BD000008B500680B49884212D10B48C5
:1015E000816941F4006181618069002200F400603A
:1015F000009011461920FFF7DDFBBDE808401920D7
:10160000FFF7CABB08BD0000002C014000100240DB
:1016100090F83D10012901D001207047022180F887
:101620003D100168CA6842F00102CA6000680E49B4
:1016300088420ED00D4988420BD0B0F1804F08D0BF
:101640000B49884205D00B49884202D00A4988429A
:1016500004D1816801F00701062903D0016841F037
:101660000101016000207047002C0140003401405E
:101670000004004000080040000C004070B5044623
:1016800090F83C00012817D0012584F83C50022036
:1016900084F83D002068826822F0770222F47F42BD
:1016A00082600868502830D00DDC20284DD005DC41
:1016B00098B310283BD148E0022070BD302844D0B8
:1016C000402834D139E0602828D0702806D0B0F501
:1016D000805F2CD0B0F5005F29D10AE0CB68D1E95A
:1016E0000121206800F040FB2068816841F077010B
:1016F00009E0CB68D1E90121206800F035FB2068C2
:10170000816841F48041816011E0CA6849682068BD
:1017100000F03CFB5021206807E016E0CA684968E9
:10172000206800F044FB6021206800F027FB84F86B
:101730003D50002084F83C0070BDCA6849682068AC
:1017400000F024FB40212068EFE7226801461046A4
:10175000EBE7704770B50446006801694FF000057B
:10176000C943890715D4C168C943890711D4E91E43
:10177000016101202077206880698007204602D01F
:10178000FFF7E7FF04E000F098F8204600F096F835
:10179000257720680169C943490717D4C168C9433F
:1017A000490713D46FF004010161022020772068FB
:1017B000806910F4407F204602D0FFF7CAFF04E0A2
:1017C00000F07BF8204600F079F825772068016961
:1017D000C943090716D4C168C943090712D46FF079
:1017E00008010161042020772068C0698007204635
:1017F00002D0FFF7AEFF04E000F05FF8204600F0F3
:101800005DF8257720680169C943C90617D4C16806
:10181000C943C90613D46FF0100101610820207775
:101820002068C06910F4407F204602D0FFF791FF86
:1018300004E000F042F8204600F040F825772068E8
:101840000169C943C90708D1C168C943C90704D19F
:10185000891E0161204600F032F820680169C94301
:10186000090609D4C168C943090605D46FF080018F
:1018700001612046FFF740FE20680169C94349061F
:1018800009D4C168C943490605D46FF0400101611C
:10189000204600F015F820680169C94389060BD479
:1018A000C168C943890607D46FF020010161204651
:1018B000BDE87040FFF721BE70BD704770477047AC
:1018C000704770B5040004D094F83D00002510B1B5
:1018D00006E0012070BD84F83C50204600F022F85C
:1018E000242084F83D002068C16821F40051C160C3
:1018F000204600F06FFA2068016921F490410161EF
:101900002068416921F02A0141612068C16841F4E1
:101910000051C1602564202084F83D0084F83E0019
:10192000002070BD30B585B000240094019402946D
:10193000039400681449884223D11448C16941F4D2
:101940000031C161C16901F400310491816941F044
:101950000401816180690E4D00F0040004900420B0
:101960000090022001900320039069462846FFF76B
:10197000B3F80820CDE90004694628460294FFF731
:10198000ABF805B030BD000000440040001002403C
:1019900000080140FEE700003EB50021114800911B
:1019A00001910F4A02910260816001730175012467
:1019B0004FF460220461C2614160FEF709FE08B184
:1019C00072B6FEE70A20CDE90004052002906946C0
:1019D0000448FEF77BFD002801D072B6FEE73EBD4D
:1019E00000240140F80200203EB500241148009474
:1019F000019402940E49846001600473047501250A
:101A000005614FF460214460C161FEF7E1FD08B15A
:101A100072B6FEE70B20CDE9000569460294054841
:101A2000FEF754FD002801D072B6FEE73EBD00006F
:101A3000002801402803002030B585B000241B4851
:101A40000094019402940394816941F02001816122
:101A5000816901F020010491816941F010018161E7
:101A6000816901F010010491816941F004018161F3
:101A7000816901F004010491816941F008018161EB
:101A800080690B4D00F008000490012203212846D4
:101A9000FFF71EF903210120CDE90010CDE9024135
:101AA00069462846FFF718F805B030BD001002401F
:101AB000000C014010B586B0002419480094019430
:101AC0000294039404941549059401604721C0E9E8
:101AD000011442F21071C0E903148021C0E90541EC
:101AE000FFF74AFD08B172B6FEE74FF48050009050
:101AF00069460B48FFF7C2FD08B172B6FEE70494D1
:101B000004A907480594FFF7F9FC08B172B6FEE78F
:101B10000348FFF77DFD06B010BD0000002C01401A
:101B20006C030020FEE7FEE770477047FFF7DCB864
:101B300030B595B028216846FEF78CFB14210AA821
:101B4000FEF788FB18210FA8FEF784FB012108048B
:101B5000CDE900100025029502240491CDE907404B
:101B60004FF4201009906846FFF722FB08B172B6C7
:101B7000FEE70AA90F2081E831004FF48060CDE92B
:101B80000D0502210AA8FFF727FA08B172B6FEE791
:101B90004FF4004011900F940FA8FFF7A7F9002809
:101BA00001D072B6FEE715B030BD704770B53F4842
:101BB000FFF7D0FD3E48FEF77DFE32213C48FEF7A0
:101BC000DBFD3B48FEF700FD3A4C20803848FEF72D
:101BD00071FE32213648FEF7CFFD3548FEF7F4FCA2
:101BE0006080211D20884988334C08444008A0F2B9
:101BF0006911324D2080B1F5AA7F0FD2481C80B206
:101C000000F0DFFB2E4A2F4B00F0EEFB00F0ACFBA8
:101C1000A0F62E1040422080032013E0A0F2BD2148
:101C2000B1F5C87F10D2481C80B200F0CAFB002278
:101C3000254B00F041FA00F097FB80B2C0F5FF7031
:101C400020800420288014E0A0F24D420621132AAF
:101C500002D24FF4AF700AE040F25642904208D3ED
:101C6000A0F25640C0F38D00A0F2591040422080EF
:101C700029801648FEF71EFE32211448FEF77CFD2F
:101C80001248FEF7A1FCA0F2D920114C80B200F05E
:101C900057FD00F0A7FC0F4A0F4B00F00DFA00F0C3
:101CA000D9F900F02DFD208070BD00006C030020EC
:101CB000F8020020E00200200A00002008000020B6
:101CC0009A999999999917400000F83F28030020A4
:101CD0000C000020105839B4C876F73FF0B5026800
:101CE0001C4B1D4D1D4E1E4F1E4C4FF0804C9842FC
:101CF00009D0A04207D0604505D0A84203D0B04229
:101D000001D0B84204D122F0700E4A6842EA0E02B5
:101D1000984209D0A04207D0604505D0A84203D020
:101D2000B04201D0B84203D122F44075CA682A43B8
:101D30004D6922F080022A4302608A68C2620A6802
:101D40008262984201D0A04201D109690163012158
:101D50004161F0BD002C014000040040000800403B
:101D6000000C00400034014010B5846842EA0322B0
:101D700024F47F440A432243826010BD826822F02B
:101D800070020A4342F007018160704710B5036A90
:101D9000046A24F001040462846924F0F00444EA33
:101DA000021423F00A020A438461026210BD10B5D6
:101DB000036A23F0100303628369046A23F4704307
:101DC00043EA023224F0A00343EA01118261016276
:101DD00010BD000070B5044600680169E26821F496
:101DE0004051114301612169A068084361690843BA
:101DF0002168CA6841F20C639A430243CA602068B2
:101E00004169A26921F44071114341611E49206872
:101E1000884202D1FFF786F901E0FFF773F900EB82
:101E2000C00101EB0012606864218000B2FBF0F396
:101E3000B3FBF1F36FF018067343B2FBF0F5B2FB9E
:101E4000F0F605EB8305322303EB0515B5FBF1F541
:101E5000B6FBF1F605F0F00505EB0615B2FBF0F662
:101E6000B2FBF0F0B0FBF1F06FF01802504306EB5C
:101E7000800003EB0010B0FBF1F0216800F00F00D0
:101E80002844886070BD000000380140FEE7090763
:101E9000090E002804DB00F1E02080F800147047F0
:101EA00000F00F0000F1E02080F8141D70470000E2
:101EB0001CB53A4C4FF4FA60A080DB20E08006208D
:101EC0002081FEF719FFFFF733FEFFF7B5FDFFF79F
:101ED00063FD0025334900953148019508600846A7
:101EE000FEF76BFD08B172B6FEE700950022694669
:101EF0002C480195FEF73EFD08B172B6FEE71022B0
:101F000069462848FEF736FD08B172B6FEE7254857
:101F100025495C3001604FF4E131C0E901150C2125
:101F2000C560C0E904518561C561FFF7CAFC08B10D
:101F300072B6FEE7FFF758FDFFF7BCFD19486038A1
:101F4000FEF758FAC820FEF7B5FD16483038FEF700
:101F500051FAC820FEF7AEFD00231A461946114873
:101F6000FEF76CFD00231A4610210E48FEF766FDB1
:101F700000210C48FEF76FFD10210A48FEF76BFDAB
:101F800008481430FFF744FB60880090A3896289F9
:101F90002189208800F00AF8F6E700000000002000
:101FA0000074004058030020004400402DE9F05F19
:101FB0009A461546894606460024DFF89080DDF8EB
:101FC00028B01DE0584600F0BBFB0746504600F025
:101FD000B7FB58F8241000F0C7FB394600F02EFB81
:101FE00000F08EFB0346002000E0401CA842FCD31A
:101FF000002211461648FEF721FD04EB090084B2C9
:10200000B442DFD300241DE0504600F099FB58F89D
:10201000241000F0A9FB0746584600F091FB394612
:1020200000F06EFC00F06CFB0346002000E0401C5A
:10203000A842FCD3002211460548FEF7FFFC04EB42
:10204000090084B2B442DFD3BDE8F09F1000002045
:102050005803002021F00042A2F16052B2F5801F27
:1020600001F0004328BFD2F17F6C0BD95FEA001C5E
:1020700043EAC20242EB507018BF704728BF20F0FD
:1020800001007047B2F5801FBCBF184670474FEA89
:10209000410C1CF5001F02D2084600F02CBC70B5A4
:1020A00000F04CFA00000089FFF7F6BF4FF0004047
:1020B000A0F58000704700002DE9C04130B4DFF882
:1020C000A0C23CEA111418BF3CEA131400F0EC80E3
:1020D00081EA03051CEA111444EAD57418BF1CEA0E
:1020E000131500F0C780A4EB05044FF0004545EA46
:1020F000C12145EAC32341EA505143EA525304F156
:102100007F74994204F500344FEAC0204FEAC2229E
:1021100008BF904200F09C804FEA13650FF2401612
:10212000765D4FEA134506FB05F7C7F1807706FB9E
:1021300007F74FEAD737A7FB03687642C8F5803820
:10214000A7FB06CE38BFA8F1010807FB08E64FF051
:10215000000EA6FB028CE6FB03CEDCF1000CCEF1F8
:10216000004E38BFAEF1010EA6FB0C584FF0000731
:102170004FF00005E6FB0E87A1FB08C6A0FB07CECB
:1021800016EB0E0645F10005E1FB076515F1E04E83
:102190007EBFA4F580345FEA46066D4116F18007E4
:1021A00045F100054FEA17274FEA066647EA05673B
:1021B000A6F1DE46B6F1805F4FEA15251FD93846F5
:1021C00024F0010C05EBC471BCF1FE6F01EB0C11A6
:1021D00002D8F0BCBDE8008124425CBF01F5801E3E
:1021E0009EEAC47F02D4F0BCBDE80081244238D40A
:1021F000F0BCA1F1C041BDE8004100F0EDB94FEAEB
:10220000D22242EA43524FEAD323A7FB02864FEA87
:10221000D02040EA415007FB03661EEA0E0F4FEA4A
:10222000D12105FB026658BFA6EB0056B6EB00565F
:102230004FEA520E4EEAC37E18EB0E0E56EB530ECB
:10224000BDD518EB02085E417F1C55F10005B6E7CD
:102250004FF480154FF000074FF000064FF00008D4
:10226000ADE7F0BC4FF0000001F1C04101F00041CA
:10227000BDE8008111EA0C1F0CEA131500D00CE038
:1022800013EA0C1F00F025804FF00000F0BC81EA3B
:10229000030101F00041BDE80081F0BCBDE8004150
:1022A00081EA030100F098B9F0BCBDE8004170B5C7
:1022B00000F044F9097EFC3E00F007B881EA030112
:1022C0004FF0000001F00041704781EA030100F087
:1022D00083B9F0BCBDE800414FF0000021497047D0
:1022E000FFFDFBF9F7F5F4F2F0EEEDEBE9E8E6E4DB
:1022F000E3E1E0DEDDDBDAD8D7D5D4D3D1D0CFCD62
:10230000CCCBCAC8C7C6C5C4C2C1C0BFBEBDBCBB9A
:10231000BAB9B8B7B6B5B4B3B2B1B0AFAEADACAB95
:10232000AAA9A8A8A7A6A5A4A3A3A2A1A09F9F9E6F
:102330009D9C9C9B9A999998979796959594939321
:10234000929191908F8F8E8E8D8C8C8B8B8A8989B8
:10235000888887878685858484838382828181803B
:102360000000FF070000F87F4FEA1153A3F58063D8
:10237000D3F11E03A8BFD3F1200C08DB4FF00042BD
:1023800042EAC12252EA505232FA03F0704709423F
:102390000BD4102BC4BF0020704703F5787CBCF130
:1023A000FF3F05D04FF0FF3070474FF000007047FF
:1023B00070B500F0C3F800BF499224800020704738
:1023C000F0E7B0FA80F310FA03F10AD0C3F11D036D
:1023D00003F580634FEA41504FEA035202EBD121EB
:1023E00070474FF000007047DFF848C170B51CEA35
:1023F000111E1EBF1CEA13159EEA0C0F95EA0C0F66
:1024000000F06F8081EA030423EA4C134EEAD47E85
:1024100021EA4C1141F4801143F48013AE44A1FB36
:10242000024CA0FB0365AEF17F7E361955EB0C051F
:10243000A1FB034C4CF10003A0FB021C16EB0C06A5
:10244000654153F10003094218BF46F0010613F439
:10245000007F0BD14FEA03314FEA0530340341EAE4
:10246000155140EA16506FF003020AE04FEAC3210B
:102470004FEAC520F40241EA555140EA56506FF048
:10248000020202EB2E4201EB025585EACE710AD020
:102490005FEA440C18BF24F0004450F1000041F101
:1024A000000120EAD47040F2FE7C624500D270BD8B
:1024B000A84214BF4FF080444FF04044002E08BFA4
:1024C0000024BEF1806FA8BFA1F1C041BDE87040FB
:1024D00080F282804FF0000001F1C04101F0004124
:1024E00070479EEA0C0F0CEA131518BF95EA0C0F03
:1024F00006D04FF0000081EA030E0EF0004170BDDF
:1025000000F01CF88900013E00F007B800F009B89F
:102510004FEA430C5FEA5C5C08D081EA030100F0FB
:102520005BB84FEA410C5FEA5C5CF6D14FF000000B
:10253000014970470000FF070000F87F0EF1020E0E
:102540002EF0030E5EF8046B364205D4012A43EBED
:10255000030515F5001F12D8012841EB010C1CF5ED
:10256000001F0CD80ED14FEAD17C15F5001F0CEBE3
:102570004C0C0CF1020C08BF4CEBD37C04E04FF088
:10258000080C01E04FEAD37C0CEB4C0526FA05F66B
:1025900006F00706B6F1040C06D20EEB860CBDE879
:1025A00070404CF0010C6047DFE80CF0090B0202B0
:1025B0004FF000414FF00000A1F5002170BD194619
:1025C0001046012851EB010418BFD4F5001484BF54
:1025D000002001F0004170BD0808A0F500114FEA8D
:1025E0003101704743004FEAD30C4FEA3C0C4340A3
:1025F0001FBF40070CF1605113F0FE4F70471CF0F5
:10260000006F03D100200CF0004170470CF0004334
:1026100043EA507010B540EACC0000F026F900BF44
:10262000000000924FEA0001FFF7D6BF4FF00041D3
:102630004FF00000A1F500217047000090EA010F63
:1026400048BF81F0004100F16281421A3CBF801A0C
:1026500089184FEAD0524FF07F4C1CEA410FA2EB91
:10266000D15318BF9CEA026F00F03B804FF0004C42
:102670004CEA00204CEA012121FA03FC10EB0C0C7F
:102680001ED202F1FF325FEA1C2040EBC25038BF7D
:1026900070471CF07F0F4FEA400C18BFBCF17F4F12
:1026A00038BF7047C3F12003994008BF20F00100F4
:1026B000BCF17F4F38BF7047A0F1C04000F01BB99C
:1026C0004FEA3C00000A40EBC25028BF1CF0FF0F4D
:1026D0004FEA400CE6D018BFBCF17F4F38BF7047BF
:1026E000EAE79CEA026F05D010EA5C0F08BF00F031
:1026F0000040704710B500F0B8F800BF64FBBE3E64
:10270000C10DD1F19E0206DB4FEA002343F00043E6
:1027100023FA02F07047004207D54FEA4001B1F1B9
:10272000FE4F02D24FF00000704710B500F09DF848
:1027300049922480002070476FEA20007047000013
:10274000B0FA80F310FA03F2C3F19D030AD0D90561
:1027500001EB1220530638BF704700F1010008BF9B
:1027600020F00100704700004FF47F0C1CEAD012EB
:102770001EBF1CEAD11392EA0C0F93EA0C0F00F073
:10278000478090EA010F48BF42F480724FF0004C3E
:102790004CEA00204CEA012102EB0302A0FB0113EA
:1027A000A2F50002002918BF43F001035B0028BF17
:1027B0004FEA330342EB22425FEA132C4CEBC25048
:1027C0002EBFBCEB436FB2F57C0F70474FEA036C32
:1027D000BCF1004F08BF20F00100B2F57C0F38BFFC
:1027E00070470BD582F0FF0212F5803FC8BF7047DB
:1027F00000F1C040D8BF00F00040704700F5000C69
:102800005FEA4C0C48BF7047B0F1C04000F073B8AD
:1028100090EA010F0CEAD11348BF42F4807262457E
:1028200038BF634504D280EA010000F000407047E1
:1028300010B500F01AF800BF8900013E00F007B89B
:1028400000F009B85FEA410C5FEA1C6C08D080EA2E
:10285000010000F050B85FEA400C5FEA1C6CF6D152
:102860004FF00040A0F5800070470EF1020E2EF0F0
:10287000030E5EF8044B244204D44FEA4102B2F145
:102880007F4F11D84FEA4003B3F17F4F0CD80ED1E0
:102890004FEAD07CB2F17F4F0CEB4C0C0CF1020CE8
:1028A00008BF4CEBD17C04E04FF0080C01E04FEA8C
:1028B000D17C0CEB4C0324FA03F404F00704B4F1CC
:1028C000040C06D20EEB840CBDE810404CF0010C59
:1028D0006047DFE80CF0070802024FF00040A0F567
:1028E000800010BD0846420018BFD2F1807288BF38
:1028F00000F0004010BDFF2141EAD050C0057047F4
:1029000090EA010F48BF81F000413FF59EAE421AA8
:1029100004D882F00042A0EB020011444FEAD052EA
:102920004FF07F4C1CEA410FA2EBD15318BF9CEA39
:10293000026F4AD04FF0004C4CEA00204CEA0121D3
:1029400021FA03FCB0EB0C0C0FD412F0FE0F36D0C2
:102950005FEA4C001DD5001240EBC25038BF7047F3
:102960001CF03F0F18BF70470BE0A2F101025FEAB5
:102970001C2040EBC25038BF70471CF07F0F18BFBF
:102980007047C3F12003994014BF401E20F001009E
:10299000704780084FEA122308BF7047B0FA80FCE6
:1029A000A2EB0C02CCF1280C60FA0CF093EA122F87
:1029B00004BF00EBC25070474FEAC3707047130A60
:1029C0005FEADC1008BF7047F6E79CEA026F04D0AC
:1029D00010EA5C0F08BF0020704710B5FFF745FFF5
:1029E00040DFF63E81F0004070470000000000002C
:1029F00000000102030406070809000000000102AC
:102A000003040000242A000800000020F80200004F
:102A10006C010008742C0008F80200206007000018
:102A2000D00100089006B400D0070001102D964395
:102A30008B3C295C0F3DF4FD543D295C8F3D0E2DF0
:102A4000B23D3D0AD73D23DBF93D04560E3E77BE2D
:102A50001F3E0E2D323E8195433E2410453E666654
:102A6000663ED9CE773EA69B843EDF4F8D3E0681E3
:102A7000953E3F359E3E79E9A63EA01AAF3EC74B34
:102A8000B73E0000C03E2731C83E4E62D03E75932F
:102A9000D83E8941E03EB072E83EC520F03EEC51A0
:102AA000F820105E003F0AD7033F14AE073F1F8592
:102AB0000B3FA01A0F3F21B0123F2B87163FAC1CD3
:102AC0001A3F2DB21D3F2506213FA69B243F9EEFB6
:102AD000273F96432B3F8D972E3F85EB313FF4FDEB
:102AE000343F6210383FD1223B3F3F353E3FAE4737
:102AF000413F9318443F79E9463F5EBA493F448BD2
:102B00004C5010164F3FFCA9513F5839543FB4C8A0
:102B1000563F8716593F5A645B58100A5D3F0000C4
:102B2000603F4A0C62341006643FDD246660126721
:102B300038126988100E6B3FDF4F6D3F17D96E3F1B
:102B4000D7A3706C101E713FBC74733F6ABC743F96
:102B50001904763FC74B773FEC51783F1058793FC7
:102B6000355E7A50100E7B3FF6287C3F91ED7C3F1E
:102B7000A4707D8C40117E3FC9767E3FDBF97E3F9D
:102B8000EE7C7F3F77BE0470040000800461142156
:102B9000202128300452B87E38214021482150217C
:102BA000582160216821702178218021882190306E
:102BB000040E2D72A03004A01A6FB03008A8C66BA6
:102BC0003FE7FB69C821D021D821E021E821F0218D
:102BD000F82500250825102518252025282530252D
:102BE0003825402548255010045A643BE83638689B
:102BF000257025782580258825903404AE4721A0AE
:102C000025A825B01805AAF1123F4035C825D025C2
:102C1000D825E025E83404D7A3F0F838049CC4E0B4
:102C2000082910291829203808D9CEB73EB29DAFFF
:102C300038380852B89E3E19049650295829602900
:102C40006829702978298010059CC4203E682A3E96
:102C50009829A038045839B4B015DC19B8A8070F62
:102C60003DBC74933CD81A01656A10E50004002449
:042C7000F40000006C
:0400000508000131BD
:00000001FF
